{
  "_format": "hh-sol-artifact-1",
  "contractName": "V2_EngineV3",
  "sourceName": "contracts/V2_EngineV3.sol",
  "abi": [
    {
      "inputs": [],
      "stateMutability": "nonpayable",
      "type": "constructor"
    },
    {
      "inputs": [
        {
          "internalType": "uint256",
          "name": "x",
          "type": "uint256"
        },
        {
          "internalType": "uint256",
          "name": "y",
          "type": "uint256"
        }
      ],
      "name": "PRBMath_MulDiv18_Overflow",
      "type": "error"
    },
    {
      "inputs": [
        {
          "internalType": "uint256",
          "name": "x",
          "type": "uint256"
        },
        {
          "internalType": "uint256",
          "name": "y",
          "type": "uint256"
        },
        {
          "internalType": "uint256",
          "name": "denominator",
          "type": "uint256"
        }
      ],
      "name": "PRBMath_MulDiv_Overflow",
      "type": "error"
    },
    {
      "inputs": [],
      "name": "PRBMath_SD59x18_Abs_MinSD59x18",
      "type": "error"
    },
    {
      "inputs": [],
      "name": "PRBMath_SD59x18_Div_InputTooSmall",
      "type": "error"
    },
    {
      "inputs": [
        {
          "internalType": "SD59x18",
          "name": "x",
          "type": "int256"
        },
        {
          "internalType": "SD59x18",
          "name": "y",
          "type": "int256"
        }
      ],
      "name": "PRBMath_SD59x18_Div_Overflow",
      "type": "error"
    },
    {
      "inputs": [
        {
          "internalType": "SD59x18",
          "name": "x",
          "type": "int256"
        }
      ],
      "name": "PRBMath_SD59x18_Exp2_InputTooBig",
      "type": "error"
    },
    {
      "inputs": [],
      "name": "PRBMath_SD59x18_Mul_InputTooSmall",
      "type": "error"
    },
    {
      "inputs": [
        {
          "internalType": "SD59x18",
          "name": "x",
          "type": "int256"
        },
        {
          "internalType": "SD59x18",
          "name": "y",
          "type": "int256"
        }
      ],
      "name": "PRBMath_SD59x18_Mul_Overflow",
      "type": "error"
    },
    {
      "inputs": [
        {
          "internalType": "UD60x18",
          "name": "x",
          "type": "uint256"
        }
      ],
      "name": "PRBMath_UD60x18_Exp2_InputTooBig",
      "type": "error"
    },
    {
      "anonymous": false,
      "inputs": [
        {
          "indexed": true,
          "internalType": "address",
          "name": "addr",
          "type": "address"
        },
        {
          "indexed": true,
          "internalType": "bytes32",
          "name": "task",
          "type": "bytes32"
        }
      ],
      "name": "ContestationSubmitted",
      "type": "event"
    },
    {
      "anonymous": false,
      "inputs": [
        {
          "indexed": true,
          "internalType": "address",
          "name": "addr",
          "type": "address"
        },
        {
          "indexed": true,
          "internalType": "bytes32",
          "name": "task",
          "type": "bytes32"
        },
        {
          "indexed": false,
          "internalType": "bool",
          "name": "yea",
          "type": "bool"
        }
      ],
      "name": "ContestationVote",
      "type": "event"
    },
    {
      "anonymous": false,
      "inputs": [
        {
          "indexed": true,
          "internalType": "bytes32",
          "name": "id",
          "type": "bytes32"
        },
        {
          "indexed": true,
          "internalType": "uint32",
          "name": "start_idx",
          "type": "uint32"
        },
        {
          "indexed": false,
          "internalType": "uint32",
          "name": "end_idx",
          "type": "uint32"
        }
      ],
      "name": "ContestationVoteFinish",
      "type": "event"
    },
    {
      "anonymous": false,
      "inputs": [
        {
          "indexed": false,
          "internalType": "uint8",
          "name": "version",
          "type": "uint8"
        }
      ],
      "name": "Initialized",
      "type": "event"
    },
    {
      "anonymous": false,
      "inputs": [
        {
          "indexed": true,
          "internalType": "bytes32",
          "name": "id",
          "type": "bytes32"
        }
      ],
      "name": "ModelRegistered",
      "type": "event"
    },
    {
      "anonymous": false,
      "inputs": [
        {
          "indexed": true,
          "internalType": "address",
          "name": "previousOwner",
          "type": "address"
        },
        {
          "indexed": true,
          "internalType": "address",
          "name": "newOwner",
          "type": "address"
        }
      ],
      "name": "OwnershipTransferred",
      "type": "event"
    },
    {
      "anonymous": false,
      "inputs": [
        {
          "indexed": true,
          "internalType": "bool",
          "name": "paused",
          "type": "bool"
        }
      ],
      "name": "PausedChanged",
      "type": "event"
    },
    {
      "anonymous": false,
      "inputs": [
        {
          "indexed": true,
          "internalType": "address",
          "name": "to",
          "type": "address"
        }
      ],
      "name": "PauserTransferred",
      "type": "event"
    },
    {
      "anonymous": false,
      "inputs": [
        {
          "indexed": true,
          "internalType": "address",
          "name": "addr",
          "type": "address"
        },
        {
          "indexed": true,
          "internalType": "bytes32",
          "name": "commitment",
          "type": "bytes32"
        }
      ],
      "name": "SignalCommitment",
      "type": "event"
    },
    {
      "anonymous": false,
      "inputs": [
        {
          "indexed": true,
          "internalType": "address",
          "name": "addr",
          "type": "address"
        },
        {
          "indexed": true,
          "internalType": "bytes32",
          "name": "task",
          "type": "bytes32"
        }
      ],
      "name": "SolutionClaimed",
      "type": "event"
    },
    {
      "anonymous": false,
      "inputs": [
        {
          "indexed": true,
          "internalType": "bytes32",
          "name": "id",
          "type": "bytes32"
        },
        {
          "indexed": false,
          "internalType": "uint256",
          "name": "rate",
          "type": "uint256"
        }
      ],
      "name": "SolutionMineableRateChange",
      "type": "event"
    },
    {
      "anonymous": false,
      "inputs": [
        {
          "indexed": true,
          "internalType": "address",
          "name": "addr",
          "type": "address"
        },
        {
          "indexed": true,
          "internalType": "bytes32",
          "name": "task",
          "type": "bytes32"
        }
      ],
      "name": "SolutionSubmitted",
      "type": "event"
    },
    {
      "anonymous": false,
      "inputs": [
        {
          "indexed": true,
          "internalType": "uint64",
          "name": "startBlockTime",
          "type": "uint64"
        }
      ],
      "name": "StartBlockTimeChanged",
      "type": "event"
    },
    {
      "anonymous": false,
      "inputs": [
        {
          "indexed": true,
          "internalType": "bytes32",
          "name": "id",
          "type": "bytes32"
        },
        {
          "indexed": true,
          "internalType": "bytes32",
          "name": "model",
          "type": "bytes32"
        },
        {
          "indexed": false,
          "internalType": "uint256",
          "name": "fee",
          "type": "uint256"
        },
        {
          "indexed": true,
          "internalType": "address",
          "name": "sender",
          "type": "address"
        }
      ],
      "name": "TaskSubmitted",
      "type": "event"
    },
    {
      "anonymous": false,
      "inputs": [
        {
          "indexed": true,
          "internalType": "address",
          "name": "to",
          "type": "address"
        }
      ],
      "name": "TreasuryTransferred",
      "type": "event"
    },
    {
      "anonymous": false,
      "inputs": [
        {
          "indexed": true,
          "internalType": "address",
          "name": "addr",
          "type": "address"
        },
        {
          "indexed": true,
          "internalType": "address",
          "name": "validator",
          "type": "address"
        },
        {
          "indexed": false,
          "internalType": "uint256",
          "name": "amount",
          "type": "uint256"
        }
      ],
      "name": "ValidatorDeposit",
      "type": "event"
    },
    {
      "anonymous": false,
      "inputs": [
        {
          "indexed": true,
          "internalType": "address",
          "name": "addr",
          "type": "address"
        },
        {
          "indexed": true,
          "internalType": "address",
          "name": "to",
          "type": "address"
        },
        {
          "indexed": true,
          "internalType": "uint256",
          "name": "count",
          "type": "uint256"
        },
        {
          "indexed": false,
          "internalType": "uint256",
          "name": "amount",
          "type": "uint256"
        }
      ],
      "name": "ValidatorWithdraw",
      "type": "event"
    },
    {
      "anonymous": false,
      "inputs": [
        {
          "indexed": true,
          "internalType": "address",
          "name": "addr",
          "type": "address"
        },
        {
          "indexed": true,
          "internalType": "uint256",
          "name": "count",
          "type": "uint256"
        }
      ],
      "name": "ValidatorWithdrawCancelled",
      "type": "event"
    },
    {
      "anonymous": false,
      "inputs": [
        {
          "indexed": true,
          "internalType": "address",
          "name": "addr",
          "type": "address"
        },
        {
          "indexed": true,
          "internalType": "uint256",
          "name": "count",
          "type": "uint256"
        },
        {
          "indexed": false,
          "internalType": "uint256",
          "name": "unlockTime",
          "type": "uint256"
        },
        {
          "indexed": false,
          "internalType": "uint256",
          "name": "amount",
          "type": "uint256"
        }
      ],
      "name": "ValidatorWithdrawInitiated",
      "type": "event"
    },
    {
      "anonymous": false,
      "inputs": [
        {
          "indexed": false,
          "internalType": "uint256",
          "name": "version",
          "type": "uint256"
        }
      ],
      "name": "VersionChanged",
      "type": "event"
    },
    {
      "inputs": [],
      "name": "accruedFees",
      "outputs": [
        {
          "internalType": "uint256",
          "name": "",
          "type": "uint256"
        }
      ],
      "stateMutability": "view",
      "type": "function"
    },
    {
      "inputs": [],
      "name": "baseToken",
      "outputs": [
        {
          "internalType": "contract IBaseToken",
          "name": "",
          "type": "address"
        }
      ],
      "stateMutability": "view",
      "type": "function"
    },
    {
      "inputs": [
        {
          "internalType": "bytes32[]",
          "name": "taskids_",
          "type": "bytes32[]"
        },
        {
          "internalType": "bytes[]",
          "name": "cids_",
          "type": "bytes[]"
        }
      ],
      "name": "bulkSubmitSolution",
      "outputs": [],
      "stateMutability": "nonpayable",
      "type": "function"
    },
    {
      "inputs": [
        {
          "internalType": "uint8",
          "name": "version_",
          "type": "uint8"
        },
        {
          "internalType": "address",
          "name": "owner_",
          "type": "address"
        },
        {
          "internalType": "bytes32",
          "name": "model_",
          "type": "bytes32"
        },
        {
          "internalType": "uint256",
          "name": "fee_",
          "type": "uint256"
        },
        {
          "internalType": "bytes",
          "name": "input_",
          "type": "bytes"
        },
        {
          "internalType": "uint256",
          "name": "n_",
          "type": "uint256"
        }
      ],
      "name": "bulkSubmitTask",
      "outputs": [],
      "stateMutability": "nonpayable",
      "type": "function"
    },
    {
      "inputs": [
        {
          "internalType": "uint256",
          "name": "count_",
          "type": "uint256"
        }
      ],
      "name": "cancelValidatorWithdraw",
      "outputs": [],
      "stateMutability": "nonpayable",
      "type": "function"
    },
    {
      "inputs": [
        {
          "internalType": "bytes32",
          "name": "taskid_",
          "type": "bytes32"
        }
      ],
      "name": "claimSolution",
      "outputs": [],
      "stateMutability": "nonpayable",
      "type": "function"
    },
    {
      "inputs": [
        {
          "internalType": "bytes32",
          "name": "",
          "type": "bytes32"
        }
      ],
      "name": "commitments",
      "outputs": [
        {
          "internalType": "uint256",
          "name": "",
          "type": "uint256"
        }
      ],
      "stateMutability": "view",
      "type": "function"
    },
    {
      "inputs": [],
      "name": "contestationVoteExtensionTime",
      "outputs": [
        {
          "internalType": "uint256",
          "name": "",
          "type": "uint256"
        }
      ],
      "stateMutability": "view",
      "type": "function"
    },
    {
      "inputs": [
        {
          "internalType": "bytes32",
          "name": "taskid_",
          "type": "bytes32"
        },
        {
          "internalType": "uint32",
          "name": "amnt_",
          "type": "uint32"
        }
      ],
      "name": "contestationVoteFinish",
      "outputs": [],
      "stateMutability": "nonpayable",
      "type": "function"
    },
    {
      "inputs": [
        {
          "internalType": "bytes32",
          "name": "",
          "type": "bytes32"
        },
        {
          "internalType": "uint256",
          "name": "",
          "type": "uint256"
        }
      ],
      "name": "contestationVoteNays",
      "outputs": [
        {
          "internalType": "address",
          "name": "",
          "type": "address"
        }
      ],
      "stateMutability": "view",
      "type": "function"
    },
    {
      "inputs": [
        {
          "internalType": "bytes32",
          "name": "",
          "type": "bytes32"
        },
        {
          "internalType": "uint256",
          "name": "",
          "type": "uint256"
        }
      ],
      "name": "contestationVoteYeas",
      "outputs": [
        {
          "internalType": "address",
          "name": "",
          "type": "address"
        }
      ],
      "stateMutability": "view",
      "type": "function"
    },
    {
      "inputs": [
        {
          "internalType": "bytes32",
          "name": "",
          "type": "bytes32"
        },
        {
          "internalType": "address",
          "name": "",
          "type": "address"
        }
      ],
      "name": "contestationVoted",
      "outputs": [
        {
          "internalType": "bool",
          "name": "",
          "type": "bool"
        }
      ],
      "stateMutability": "view",
      "type": "function"
    },
    {
      "inputs": [
        {
          "internalType": "bytes32",
          "name": "",
          "type": "bytes32"
        }
      ],
      "name": "contestationVotedIndex",
      "outputs": [
        {
          "internalType": "uint256",
          "name": "",
          "type": "uint256"
        }
      ],
      "stateMutability": "view",
      "type": "function"
    },
    {
      "inputs": [
        {
          "internalType": "bytes32",
          "name": "",
          "type": "bytes32"
        }
      ],
      "name": "contestations",
      "outputs": [
        {
          "internalType": "address",
          "name": "validator",
          "type": "address"
        },
        {
          "internalType": "uint64",
          "name": "blocktime",
          "type": "uint64"
        },
        {
          "internalType": "uint32",
          "name": "finish_start_index",
          "type": "uint32"
        },
        {
          "internalType": "uint256",
          "name": "slashAmount",
          "type": "uint256"
        }
      ],
      "stateMutability": "view",
      "type": "function"
    },
    {
      "inputs": [
        {
          "internalType": "uint256",
          "name": "t",
          "type": "uint256"
        },
        {
          "internalType": "uint256",
          "name": "ts",
          "type": "uint256"
        }
      ],
      "name": "diffMul",
      "outputs": [
        {
          "internalType": "uint256",
          "name": "",
          "type": "uint256"
        }
      ],
      "stateMutability": "pure",
      "type": "function"
    },
    {
      "inputs": [],
      "name": "exitValidatorMinUnlockTime",
      "outputs": [
        {
          "internalType": "uint256",
          "name": "",
          "type": "uint256"
        }
      ],
      "stateMutability": "view",
      "type": "function"
    },
    {
      "inputs": [
        {
          "internalType": "address",
          "name": "sender_",
          "type": "address"
        },
        {
          "internalType": "bytes32",
          "name": "taskid_",
          "type": "bytes32"
        },
        {
          "internalType": "bytes",
          "name": "cid_",
          "type": "bytes"
        }
      ],
      "name": "generateCommitment",
      "outputs": [
        {
          "internalType": "bytes32",
          "name": "",
          "type": "bytes32"
        }
      ],
      "stateMutability": "pure",
      "type": "function"
    },
    {
      "inputs": [
        {
          "internalType": "bytes",
          "name": "content_",
          "type": "bytes"
        }
      ],
      "name": "generateIPFSCID",
      "outputs": [
        {
          "internalType": "bytes",
          "name": "",
          "type": "bytes"
        }
      ],
      "stateMutability": "pure",
      "type": "function"
    },
    {
      "inputs": [],
      "name": "getPsuedoTotalSupply",
      "outputs": [
        {
          "internalType": "uint256",
          "name": "",
          "type": "uint256"
        }
      ],
      "stateMutability": "view",
      "type": "function"
    },
    {
      "inputs": [],
      "name": "getReward",
      "outputs": [
        {
          "internalType": "uint256",
          "name": "",
          "type": "uint256"
        }
      ],
      "stateMutability": "view",
      "type": "function"
    },
    {
      "inputs": [],
      "name": "getSlashAmount",
      "outputs": [
        {
          "internalType": "uint256",
          "name": "",
          "type": "uint256"
        }
      ],
      "stateMutability": "view",
      "type": "function"
    },
    {
      "inputs": [],
      "name": "getValidatorMinimum",
      "outputs": [
        {
          "internalType": "uint256",
          "name": "",
          "type": "uint256"
        }
      ],
      "stateMutability": "view",
      "type": "function"
    },
    {
      "inputs": [
        {
          "components": [
            {
              "internalType": "uint256",
              "name": "fee",
              "type": "uint256"
            },
            {
              "internalType": "address",
              "name": "addr",
              "type": "address"
            },
            {
              "internalType": "uint256",
              "name": "rate",
              "type": "uint256"
            },
            {
              "internalType": "bytes",
              "name": "cid",
              "type": "bytes"
            }
          ],
          "internalType": "struct Model",
          "name": "o_",
          "type": "tuple"
        },
        {
          "internalType": "address",
          "name": "sender_",
          "type": "address"
        }
      ],
      "name": "hashModel",
      "outputs": [
        {
          "internalType": "bytes32",
          "name": "",
          "type": "bytes32"
        }
      ],
      "stateMutability": "pure",
      "type": "function"
    },
    {
      "inputs": [
        {
          "components": [
            {
              "internalType": "bytes32",
              "name": "model",
              "type": "bytes32"
            },
            {
              "internalType": "uint256",
              "name": "fee",
              "type": "uint256"
            },
            {
              "internalType": "address",
              "name": "owner",
              "type": "address"
            },
            {
              "internalType": "uint64",
              "name": "blocktime",
              "type": "uint64"
            },
            {
              "internalType": "uint8",
              "name": "version",
              "type": "uint8"
            },
            {
              "internalType": "bytes",
              "name": "cid",
              "type": "bytes"
            }
          ],
          "internalType": "struct Task",
          "name": "o_",
          "type": "tuple"
        },
        {
          "internalType": "address",
          "name": "sender_",
          "type": "address"
        },
        {
          "internalType": "bytes32",
          "name": "prevhash_",
          "type": "bytes32"
        }
      ],
      "name": "hashTask",
      "outputs": [
        {
          "internalType": "bytes32",
          "name": "",
          "type": "bytes32"
        }
      ],
      "stateMutability": "pure",
      "type": "function"
    },
    {
      "inputs": [],
      "name": "initialize",
      "outputs": [],
      "stateMutability": "nonpayable",
      "type": "function"
    },
    {
      "inputs": [
        {
          "internalType": "uint256",
          "name": "amount_",
          "type": "uint256"
        }
      ],
      "name": "initiateValidatorWithdraw",
      "outputs": [
        {
          "internalType": "uint256",
          "name": "",
          "type": "uint256"
        }
      ],
      "stateMutability": "nonpayable",
      "type": "function"
    },
    {
      "inputs": [
        {
          "internalType": "address",
          "name": "",
          "type": "address"
        }
      ],
      "name": "lastContestationLossTime",
      "outputs": [
        {
          "internalType": "uint256",
          "name": "",
          "type": "uint256"
        }
      ],
      "stateMutability": "view",
      "type": "function"
    },
    {
      "inputs": [
        {
          "internalType": "address",
          "name": "",
          "type": "address"
        }
      ],
      "name": "lastSolutionSubmission",
      "outputs": [
        {
          "internalType": "uint256",
          "name": "",
          "type": "uint256"
        }
      ],
      "stateMutability": "view",
      "type": "function"
    },
    {
      "inputs": [],
      "name": "maxContestationValidatorStakeSince",
      "outputs": [
        {
          "internalType": "uint256",
          "name": "",
          "type": "uint256"
        }
      ],
      "stateMutability": "view",
      "type": "function"
    },
    {
      "inputs": [],
      "name": "minClaimSolutionTime",
      "outputs": [
        {
          "internalType": "uint256",
          "name": "",
          "type": "uint256"
        }
      ],
      "stateMutability": "view",
      "type": "function"
    },
    {
      "inputs": [],
      "name": "minContestationVotePeriodTime",
      "outputs": [
        {
          "internalType": "uint256",
          "name": "",
          "type": "uint256"
        }
      ],
      "stateMutability": "view",
      "type": "function"
    },
    {
      "inputs": [],
      "name": "minRetractionWaitTime",
      "outputs": [
        {
          "internalType": "uint256",
          "name": "",
          "type": "uint256"
        }
      ],
      "stateMutability": "view",
      "type": "function"
    },
    {
      "inputs": [
        {
          "internalType": "bytes32",
          "name": "",
          "type": "bytes32"
        }
      ],
      "name": "models",
      "outputs": [
        {
          "internalType": "uint256",
          "name": "fee",
          "type": "uint256"
        },
        {
          "internalType": "address",
          "name": "addr",
          "type": "address"
        },
        {
          "internalType": "uint256",
          "name": "rate",
          "type": "uint256"
        },
        {
          "internalType": "bytes",
          "name": "cid",
          "type": "bytes"
        }
      ],
      "stateMutability": "view",
      "type": "function"
    },
    {
      "inputs": [],
      "name": "owner",
      "outputs": [
        {
          "internalType": "address",
          "name": "",
          "type": "address"
        }
      ],
      "stateMutability": "view",
      "type": "function"
    },
    {
      "inputs": [],
      "name": "paused",
      "outputs": [
        {
          "internalType": "bool",
          "name": "",
          "type": "bool"
        }
      ],
      "stateMutability": "view",
      "type": "function"
    },
    {
      "inputs": [],
      "name": "pauser",
      "outputs": [
        {
          "internalType": "address",
          "name": "",
          "type": "address"
        }
      ],
      "stateMutability": "view",
      "type": "function"
    },
    {
      "inputs": [
        {
          "internalType": "address",
          "name": "",
          "type": "address"
        },
        {
          "internalType": "uint256",
          "name": "",
          "type": "uint256"
        }
      ],
      "name": "pendingValidatorWithdrawRequests",
      "outputs": [
        {
          "internalType": "uint256",
          "name": "unlockTime",
          "type": "uint256"
        },
        {
          "internalType": "uint256",
          "name": "amount",
          "type": "uint256"
        }
      ],
      "stateMutability": "view",
      "type": "function"
    },
    {
      "inputs": [
        {
          "internalType": "address",
          "name": "",
          "type": "address"
        }
      ],
      "name": "pendingValidatorWithdrawRequestsCount",
      "outputs": [
        {
          "internalType": "uint256",
          "name": "",
          "type": "uint256"
        }
      ],
      "stateMutability": "view",
      "type": "function"
    },
    {
      "inputs": [],
      "name": "prevhash",
      "outputs": [
        {
          "internalType": "bytes32",
          "name": "",
          "type": "bytes32"
        }
      ],
      "stateMutability": "view",
      "type": "function"
    },
    {
      "inputs": [
        {
          "internalType": "address",
          "name": "addr_",
          "type": "address"
        },
        {
          "internalType": "uint256",
          "name": "fee_",
          "type": "uint256"
        },
        {
          "internalType": "bytes",
          "name": "template_",
          "type": "bytes"
        }
      ],
      "name": "registerModel",
      "outputs": [
        {
          "internalType": "bytes32",
          "name": "",
          "type": "bytes32"
        }
      ],
      "stateMutability": "nonpayable",
      "type": "function"
    },
    {
      "inputs": [],
      "name": "renounceOwnership",
      "outputs": [],
      "stateMutability": "nonpayable",
      "type": "function"
    },
    {
      "inputs": [],
      "name": "retractionFeePercentage",
      "outputs": [
        {
          "internalType": "uint256",
          "name": "",
          "type": "uint256"
        }
      ],
      "stateMutability": "view",
      "type": "function"
    },
    {
      "inputs": [
        {
          "internalType": "uint256",
          "name": "t",
          "type": "uint256"
        },
        {
          "internalType": "uint256",
          "name": "ts",
          "type": "uint256"
        }
      ],
      "name": "reward",
      "outputs": [
        {
          "internalType": "uint256",
          "name": "",
          "type": "uint256"
        }
      ],
      "stateMutability": "pure",
      "type": "function"
    },
    {
      "inputs": [
        {
          "internalType": "bool",
          "name": "paused_",
          "type": "bool"
        }
      ],
      "name": "setPaused",
      "outputs": [],
      "stateMutability": "nonpayable",
      "type": "function"
    },
    {
      "inputs": [
        {
          "internalType": "bytes32",
          "name": "model_",
          "type": "bytes32"
        },
        {
          "internalType": "uint256",
          "name": "rate_",
          "type": "uint256"
        }
      ],
      "name": "setSolutionMineableRate",
      "outputs": [],
      "stateMutability": "nonpayable",
      "type": "function"
    },
    {
      "inputs": [
        {
          "internalType": "uint64",
          "name": "startBlockTime_",
          "type": "uint64"
        }
      ],
      "name": "setStartBlockTime",
      "outputs": [],
      "stateMutability": "nonpayable",
      "type": "function"
    },
    {
      "inputs": [
        {
          "internalType": "uint256",
          "name": "version_",
          "type": "uint256"
        }
      ],
      "name": "setVersion",
      "outputs": [],
      "stateMutability": "nonpayable",
      "type": "function"
    },
    {
      "inputs": [
        {
          "internalType": "bytes32",
          "name": "commitment_",
          "type": "bytes32"
        }
      ],
      "name": "signalCommitment",
      "outputs": [],
      "stateMutability": "nonpayable",
      "type": "function"
    },
    {
      "inputs": [],
      "name": "slashAmountPercentage",
      "outputs": [
        {
          "internalType": "uint256",
          "name": "",
          "type": "uint256"
        }
      ],
      "stateMutability": "view",
      "type": "function"
    },
    {
      "inputs": [],
      "name": "solutionFeePercentage",
      "outputs": [
        {
          "internalType": "uint256",
          "name": "",
          "type": "uint256"
        }
      ],
      "stateMutability": "view",
      "type": "function"
    },
    {
      "inputs": [],
      "name": "solutionRateLimit",
      "outputs": [
        {
          "internalType": "uint256",
          "name": "",
          "type": "uint256"
        }
      ],
      "stateMutability": "view",
      "type": "function"
    },
    {
      "inputs": [
        {
          "internalType": "bytes32",
          "name": "",
          "type": "bytes32"
        }
      ],
      "name": "solutions",
      "outputs": [
        {
          "internalType": "address",
          "name": "validator",
          "type": "address"
        },
        {
          "internalType": "uint64",
          "name": "blocktime",
          "type": "uint64"
        },
        {
          "internalType": "bool",
          "name": "claimed",
          "type": "bool"
        },
        {
          "internalType": "bytes",
          "name": "cid",
          "type": "bytes"
        }
      ],
      "stateMutability": "view",
      "type": "function"
    },
    {
      "inputs": [
        {
          "internalType": "bytes32",
          "name": "",
          "type": "bytes32"
        }
      ],
      "name": "solutionsStake",
      "outputs": [
        {
          "internalType": "uint256",
          "name": "",
          "type": "uint256"
        }
      ],
      "stateMutability": "view",
      "type": "function"
    },
    {
      "inputs": [],
      "name": "solutionsStakeAmount",
      "outputs": [
        {
          "internalType": "uint256",
          "name": "",
          "type": "uint256"
        }
      ],
      "stateMutability": "view",
      "type": "function"
    },
    {
      "inputs": [],
      "name": "startBlockTime",
      "outputs": [
        {
          "internalType": "uint64",
          "name": "",
          "type": "uint64"
        }
      ],
      "stateMutability": "view",
      "type": "function"
    },
    {
      "inputs": [
        {
          "internalType": "bytes32",
          "name": "taskid_",
          "type": "bytes32"
        }
      ],
      "name": "submitContestation",
      "outputs": [],
      "stateMutability": "nonpayable",
      "type": "function"
    },
    {
      "inputs": [
        {
          "internalType": "bytes32",
          "name": "taskid_",
          "type": "bytes32"
        },
        {
          "internalType": "bytes",
          "name": "cid_",
          "type": "bytes"
        }
      ],
      "name": "submitSolution",
      "outputs": [],
      "stateMutability": "nonpayable",
      "type": "function"
    },
    {
      "inputs": [
        {
          "internalType": "uint8",
          "name": "version_",
          "type": "uint8"
        },
        {
          "internalType": "address",
          "name": "owner_",
          "type": "address"
        },
        {
          "internalType": "bytes32",
          "name": "model_",
          "type": "bytes32"
        },
        {
          "internalType": "uint256",
          "name": "fee_",
          "type": "uint256"
        },
        {
          "internalType": "bytes",
          "name": "input_",
          "type": "bytes"
        }
      ],
      "name": "submitTask",
      "outputs": [],
      "stateMutability": "nonpayable",
      "type": "function"
    },
    {
      "inputs": [
        {
          "internalType": "uint256",
          "name": "t",
          "type": "uint256"
        }
      ],
      "name": "targetTs",
      "outputs": [
        {
          "internalType": "uint256",
          "name": "",
          "type": "uint256"
        }
      ],
      "stateMutability": "pure",
      "type": "function"
    },
    {
      "inputs": [],
      "name": "taskOwnerRewardPercentage",
      "outputs": [
        {
          "internalType": "uint256",
          "name": "",
          "type": "uint256"
        }
      ],
      "stateMutability": "view",
      "type": "function"
    },
    {
      "inputs": [
        {
          "internalType": "bytes32",
          "name": "",
          "type": "bytes32"
        }
      ],
      "name": "tasks",
      "outputs": [
        {
          "internalType": "bytes32",
          "name": "model",
          "type": "bytes32"
        },
        {
          "internalType": "uint256",
          "name": "fee",
          "type": "uint256"
        },
        {
          "internalType": "address",
          "name": "owner",
          "type": "address"
        },
        {
          "internalType": "uint64",
          "name": "blocktime",
          "type": "uint64"
        },
        {
          "internalType": "uint8",
          "name": "version",
          "type": "uint8"
        },
        {
          "internalType": "bytes",
          "name": "cid",
          "type": "bytes"
        }
      ],
      "stateMutability": "view",
      "type": "function"
    },
    {
      "inputs": [],
      "name": "totalHeld",
      "outputs": [
        {
          "internalType": "uint256",
          "name": "",
          "type": "uint256"
        }
      ],
      "stateMutability": "view",
      "type": "function"
    },
    {
      "inputs": [
        {
          "internalType": "address",
          "name": "to_",
          "type": "address"
        }
      ],
      "name": "transferOwnership",
      "outputs": [],
      "stateMutability": "nonpayable",
      "type": "function"
    },
    {
      "inputs": [
        {
          "internalType": "address",
          "name": "to_",
          "type": "address"
        }
      ],
      "name": "transferPauser",
      "outputs": [],
      "stateMutability": "nonpayable",
      "type": "function"
    },
    {
      "inputs": [
        {
          "internalType": "address",
          "name": "to_",
          "type": "address"
        }
      ],
      "name": "transferTreasury",
      "outputs": [],
      "stateMutability": "nonpayable",
      "type": "function"
    },
    {
      "inputs": [],
      "name": "treasury",
      "outputs": [
        {
          "internalType": "address",
          "name": "",
          "type": "address"
        }
      ],
      "stateMutability": "view",
      "type": "function"
    },
    {
      "inputs": [],
      "name": "treasuryRewardPercentage",
      "outputs": [
        {
          "internalType": "uint256",
          "name": "",
          "type": "uint256"
        }
      ],
      "stateMutability": "view",
      "type": "function"
    },
    {
      "inputs": [
        {
          "internalType": "address",
          "name": "addr_",
          "type": "address"
        },
        {
          "internalType": "bytes32",
          "name": "taskid_",
          "type": "bytes32"
        }
      ],
      "name": "validatorCanVote",
      "outputs": [
        {
          "internalType": "uint256",
          "name": "",
          "type": "uint256"
        }
      ],
      "stateMutability": "view",
      "type": "function"
    },
    {
      "inputs": [
        {
          "internalType": "address",
          "name": "validator_",
          "type": "address"
        },
        {
          "internalType": "uint256",
          "name": "amount_",
          "type": "uint256"
        }
      ],
      "name": "validatorDeposit",
      "outputs": [],
      "stateMutability": "nonpayable",
      "type": "function"
    },
    {
      "inputs": [],
      "name": "validatorMinimumPercentage",
      "outputs": [
        {
          "internalType": "uint256",
          "name": "",
          "type": "uint256"
        }
      ],
      "stateMutability": "view",
      "type": "function"
    },
    {
      "inputs": [
        {
          "internalType": "uint256",
          "name": "count_",
          "type": "uint256"
        },
        {
          "internalType": "address",
          "name": "to_",
          "type": "address"
        }
      ],
      "name": "validatorWithdraw",
      "outputs": [],
      "stateMutability": "nonpayable",
      "type": "function"
    },
    {
      "inputs": [
        {
          "internalType": "address",
          "name": "",
          "type": "address"
        }
      ],
      "name": "validatorWithdrawPendingAmount",
      "outputs": [
        {
          "internalType": "uint256",
          "name": "",
          "type": "uint256"
        }
      ],
      "stateMutability": "view",
      "type": "function"
    },
    {
      "inputs": [
        {
          "internalType": "address",
          "name": "",
          "type": "address"
        }
      ],
      "name": "validators",
      "outputs": [
        {
          "internalType": "uint256",
          "name": "staked",
          "type": "uint256"
        },
        {
          "internalType": "uint256",
          "name": "since",
          "type": "uint256"
        },
        {
          "internalType": "address",
          "name": "addr",
          "type": "address"
        }
      ],
      "stateMutability": "view",
      "type": "function"
    },
    {
      "inputs": [],
      "name": "version",
      "outputs": [
        {
          "internalType": "uint256",
          "name": "",
          "type": "uint256"
        }
      ],
      "stateMutability": "view",
      "type": "function"
    },
    {
      "inputs": [
        {
          "internalType": "bytes32",
          "name": "taskid_",
          "type": "bytes32"
        },
        {
          "internalType": "bool",
          "name": "yea_",
          "type": "bool"
        }
      ],
      "name": "voteOnContestation",
      "outputs": [],
      "stateMutability": "nonpayable",
      "type": "function"
    },
    {
      "inputs": [
        {
          "internalType": "bytes32",
          "name": "taskid_",
          "type": "bytes32"
        }
      ],
      "name": "votingPeriodEnded",
      "outputs": [
        {
          "internalType": "bool",
          "name": "",
          "type": "bool"
        }
      ],
      "stateMutability": "view",
      "type": "function"
    },
    {
      "inputs": [],
      "name": "withdrawAccruedFees",
      "outputs": [],
      "stateMutability": "nonpayable",
      "type": "function"
    }
  ],
  "bytecode": "0x60806040523480156200001157600080fd5b506200001c62000022565b620000e3565b600054610100900460ff16156200008f5760405162461bcd60e51b815260206004820152602760248201527f496e697469616c697a61626c653a20636f6e747261637420697320696e697469604482015266616c697a696e6760c81b606482015260840160405180910390fd5b60005460ff90811614620000e1576000805460ff191660ff9081179091556040519081527f7f26b83ff96e1f2b6a682f133852f6798a09c465da95921460cefb38474024989060200160405180910390a15b565b615d4180620000f36000396000f3fe608060405234801561001057600080fd5b506004361061045e5760003560e01c80638129fc1c1161024c578063c17ddb2a11610146578063d2992baa116100c3578063e579f50011610087578063e579f50014610a75578063f1b8989d14610a9a578063f2fde38b14610aa3578063f43cc77314610ab6578063fa52c7d814610abf57600080fd5b8063d2992baa14610960578063d33b2ef5146109a7578063d8a6021c14610a36578063dc06a89f14610a49578063e236f46b14610a5257600080fd5b8063cbd2422d1161010a578063cbd2422d146108d9578063cf596e45146108ec578063d1f0c941146108ff578063d2307ae414610912578063d27809401461093257600080fd5b8063c17ddb2a1461088b578063c1f7272314610894578063c24b56311461089d578063c31784be146108bd578063c55dae63146108c657600080fd5b806396bb02c3116101d4578063a4fa8d5711610198578063a4fa8d5714610834578063a53e252514610847578063a8f837f314610850578063ada82c7d14610863578063b4dc35b71461086b57600080fd5b806396bb02c3146107fd5780639b975119146108065780639fd0506d1461080f578063a1975adf14610822578063a2492a901461082b57600080fd5b80638da5cb5b1161021b5780638da5cb5b146107b45780638e6d86fd146107c557806392809444146107ce57806393a090ec146107d757806393f1f8ac146107ea57600080fd5b80638129fc1c14610766578063836577951461076e578063839df945146107815780638b4d7b35146107a157600080fd5b8063408def1e1161035d57806365d445fb116102e557806375c70509116102a957806375c705091461070c578063763253bb1461072f57806377286d17146107425780637881c5e6146107555780637b36006a1461075d57600080fd5b806365d445fb146106cc578063671f8152146106df578063682c2058146106f2578063715018a6146106fb57806372dc0ee11461070357600080fd5b8063506ea7de1161032c578063506ea7de1461067657806354fd4d501461068957806356914caf146106925780635c975abb146106a557806361d027b3146106b957600080fd5b8063408def1e1461061d57806340e8c56d146106305780634421ea21146106505780634ff03efa1461066357600080fd5b80631825c20e116103eb5780632258d105116103af5780632258d105146105c7578063303fb0d6146105cf578063393cb1c7146105fa5780633d18b9121461060d5780633d57f5d91461061557600080fd5b80631825c20e1461054e5780631b75c43e146105615780631f88ea1c14610581578063218a304814610594578063218e6859146105a757600080fd5b80630a985737116104325780630a985737146104ca5780630c18d4ce146104dd5780631466b63a1461050857806316c38b3c1461051b57806317f3e0411461052e57600080fd5b8062fd70821461046357806305d1bc261461047f57806308745dd1146104a257806308afe0eb146104b7575b600080fd5b61046c60725481565b6040519081526020015b60405180910390f35b61049261048d366004614fe6565b610b1b565b6040519015158152602001610476565b6104b56104b036600461506f565b610b8d565b005b6104b56104c53660046150e6565b610d07565b61046c6104d8366004614fe6565b610eb8565b606a546104f0906001600160401b031681565b6040516001600160401b039091168152602001610476565b61046c610516366004615247565b611013565b6104b5610529366004615323565b61105a565b61046c61053c366004614fe6565b60806020526000908152604090205481565b6104b561055c366004615340565b6110ea565b61046c61056f366004615370565b607a6020526000908152604090205481565b61046c61058f36600461538b565b61118d565b61046c6105a23660046153ad565b6112c6565b61046c6105b5366004615370565b60856020526000908152604090205481565b61046c611309565b6105e26105dd36600461538b565b611359565b6040516001600160a01b039091168152602001610476565b61046c610608366004615466565b611391565b61046c6113ca565b61046c6113f4565b6104b561062b366004614fe6565b611420565b61064361063e3660046154bf565b611464565b6040516104769190615550565b6104b561065e366004615370565b611470565b61046c610671366004615466565b6114c2565b6104b5610684366004614fe6565b611688565b61046c606b5481565b6104b56106a0366004615563565b61174a565b60675461049290600160a01b900460ff1681565b6066546105e2906001600160a01b031681565b6104b56106da3660046155f2565b61178e565b6104b56106ed366004614fe6565b611828565b61046c60685481565b6104b5611b13565b61046c606f5481565b61071f61071a366004614fe6565b611b27565b6040516104769493929190615651565b6104b561073d366004615696565b611bf2565b6104b5610750366004614fe6565b611e82565b61046c6121d2565b61046c60735481565b6104b5612281565b61046c61077c3660046156b9565b612382565b61046c61078f366004614fe6565b607c6020526000908152604090205481565b6104b56107af3660046156e3565b6124a5565b6033546001600160a01b03166105e2565b61046c60745481565b61046c60715481565b6104b56107e53660046156b9565b612cc2565b6104b56107f836600461538b565b612ebc565b61046c606c5481565b61046c60845481565b6067546105e2906001600160a01b031681565b61046c60875481565b61046c608a5481565b61046c61084236600461538b565b612f4f565b61046c60755481565b6104b561085e366004615711565b612fcb565b6104b561301e565b61046c610879366004614fe6565b60836020526000908152604090205481565b61046c60695481565b61046c60895481565b61046c6108ab366004615370565b60886020526000908152604090205481565b61046c60705481565b6065546105e2906001600160a01b031681565b6104b56108e7366004614fe6565b6130e3565b61046c6108fa366004614fe6565b6131fc565b6105e261090d36600461538b565b613290565b61046c610920366004615370565b60786020526000908152604090205481565b610492610940366004615696565b607f60209081526000928352604080842090915290825290205460ff1681565b61099261096e3660046156b9565b60796020908152600092835260408084209091529082529020805460019091015482565b60408051928352602083019190915201610476565b6109f96109b5366004614fe6565b607e60205260009081526040902080546001909101546001600160a01b03821691600160a01b81046001600160401b031691600160e01b90910463ffffffff169084565b604080516001600160a01b0390951685526001600160401b03909316602085015263ffffffff909116918301919091526060820152608001610476565b6104b5610a44366004615370565b6132ac565b61046c606d5481565b610a65610a60366004614fe6565b6132fe565b604051610476949392919061572c565b610a88610a83366004614fe6565b613338565b60405161047696959493929190615759565b61046c606e5481565b6104b5610ab1366004615370565b613411565b61046c60865481565b610af7610acd366004615370565b6077602052600090815260409020805460018201546002909201549091906001600160a01b031683565b6040805193845260208401929092526001600160a01b031690820152606001610476565b608a546000828152608260209081526040808320546081909252822054919291610b4591906157c0565b610b4f91906157d3565b6073546000848152607e6020526040902054610b7b9190600160a01b90046001600160401b03166157c0565b610b8591906157c0565b421192915050565b606754600160a01b900460ff1615610bc05760405162461bcd60e51b8152600401610bb7906157ea565b60405180910390fd5b6000848152607660205260409020600101546001600160a01b0316610bf75760405162461bcd60e51b8152600401610bb79061580a565b600084815260766020526040902054831015610c505760405162461bcd60e51b81526020600482015260186024820152776c6f77657220666565207468616e206d6f64656c2066656560401b6044820152606401610bb7565b6000610c5c8383613422565b9050610c6b8787878785613557565b6065546040516323b872dd60e01b8152336004820152306024820152604481018690526001600160a01b03909116906323b872dd906064016020604051808303816000875af1158015610cc2573d6000803e3d6000fd5b505050506040513d601f19601f82011682018060405250810190610ce69190615838565b508360866000828254610cf991906157c0565b909155505050505050505050565b606754600160a01b900460ff1615610d315760405162461bcd60e51b8152600401610bb7906157ea565b6000858152607660205260409020600101546001600160a01b0316610d685760405162461bcd60e51b8152600401610bb79061580a565b600085815260766020526040902054841015610dc15760405162461bcd60e51b81526020600482015260186024820152776c6f77657220666565207468616e206d6f64656c2066656560401b6044820152606401610bb7565b6000610dcd8484613422565b905060005b82811015610df757610de78989898986613557565b610df081615855565b9050610dd2565b506065546001600160a01b03166323b872dd3330610e15868a6157d3565b6040516001600160e01b031960e086901b1681526001600160a01b03938416600482015292909116602483015260448201526064016020604051808303816000875af1158015610e69573d6000803e3d6000fd5b505050506040513d601f19601f82011682018060405250810190610e8d9190615838565b50610e9882866157d3565b60866000828254610ea991906157c0565b90915550505050505050505050565b606754600090600160a01b900460ff1615610ee55760405162461bcd60e51b8152600401610bb7906157ea565b336000908152607a60209081526040808320546077909252909120548391610f0c9161586e565b1015610f345760405162461bcd60e51b81526020600482015260006024820152604401610bb7565b600060755442610f4491906157c0565b3360009081526078602052604081208054929350600192909190610f699084906157c0565b909155505033600081815260786020908152604080832054815180830183528681528084018981528686526079855283862083875285528386209151825551600190910155938352607a90915281208054869290610fc89084906157c0565b90915550506040805183815260208101869052829133917fcc7e0e76b20394ef965d71c4111d21e1b322bb8775dc2c7acd29eb0d3c3dd96d910160405180910390a39150505b919050565b60008282856000015186602001518760a0015160405160200161103a959493929190615881565b6040516020818303038152906040528051906020012090505b9392505050565b6067546001600160a01b031633146110a15760405162461bcd60e51b815260206004820152600a6024820152693737ba103830bab9b2b960b11b6044820152606401610bb7565b6067805460ff60a01b1916600160a01b831515908102919091179091556040517fd83d5281277e107f080e362699d46082adb74e7dc6a9bccbc87d8ae9533add4490600090a250565b606754600160a01b900460ff16156111145760405162461bcd60e51b8152600401610bb7906157ea565b61111d33613685565b6111395760405162461bcd60e51b8152600401610bb7906158bf565b6111433383612382565b1561117e5760405162461bcd60e51b815260206004820152600b60248201526a1b9bdd08185b1b1bddd95960aa1b6044820152606401610bb7565b6111898282336136c6565b5050565b6000808311801561119e5750600082115b6111d55760405162461bcd60e51b81526020600482015260086024820152676d696e2076616c7360c01b6044820152606401610bb7565b60006111e0846131fc565b905060006111f1825b855b906137ea565b9050670c08a3a964c8da008112156112165768056bc75e2d63100000925050506112c0565b670de0b6b3a764000068056bc75e2d63100000600061125f671bc16d674ec800006111eb611258866112528761124c8b846138c0565b906138cf565b906138c0565b8690613973565b90506801158e460913d00000811261127f576000955050505050506112c0565b6112898160001390565b156112b1576112a56112a261129d83613982565b6139c3565b90565b955050505050506112c0565b6112a56112a26111e9836139c3565b92915050565b6000818360200151846000015185606001516040516020016112eb94939291906158eb565b60405160208183030381529060405280519060200120905092915050565b6000806113146121d2565b9050670de0b6b3a7640000606c54670de0b6b3a7640000611335919061586e565b61133f90836157d3565b6113499190615934565b611353908261586e565b91505090565b6082602052816000526040600020818154811061137557600080fd5b6000918252602090912001546001600160a01b03169150829050565b6000848484846040516020016113aa9493929190615956565b604051602081830303815290604052805190602001209050949350505050565b606a546000906113ef906113e7906001600160401b03164261586e565b6108426121d2565b905090565b6000806113ff6121d2565b9050670de0b6b3a7640000606d54670de0b6b3a7640000611335919061586e565b611428613a75565b606b8190556040518181527f8c854a81cb5c93e7e482d30fb9c6f88fdbdb320f10f7a853c2263659b54e563f906020015b60405180910390a150565b60606110538383613422565b611478613a75565b606780546001600160a01b0319166001600160a01b0383169081179091556040517f5a85b4270fc1e75035e6cd505418ce65e0bcc36cc7eb9ce9e6f8c6181d4cb57790600090a250565b606754600090600160a01b900460ff16156114ef5760405162461bcd60e51b8152600401610bb7906157ea565b6001600160a01b0385166115455760405162461bcd60e51b815260206004820152601860248201527f61646472657373206d757374206265206e6f6e2d7a65726f00000000000000006044820152606401610bb7565b60006115518484613422565b604080516080810182528781526001600160a01b038916602082015260009181018290526060810183905291925061158982336112c6565b6000818152607660205260409020600101549091506001600160a01b0316156115f45760405162461bcd60e51b815260206004820152601860248201527f6d6f64656c20616c7265616479207265676973746572656400000000000000006044820152606401610bb7565b60008181526076602090815260409182902084518155908401516001820180546001600160a01b0319166001600160a01b039092169190911790559083015160028201556060830151839190600382019061164f9082615a20565b50506040518291507fa4b0af38d049ba81703a0d0e46cc2ff39681210302134046237111a8fb7dee7290600090a2979650505050505050565b606754600160a01b900460ff16156116b25760405162461bcd60e51b8152600401610bb7906157ea565b6000818152607c6020526040902054156117025760405162461bcd60e51b8152602060048201526011602482015270636f6d6d69746d656e742065786973747360781b6044820152606401610bb7565b61170a613acf565b6000828152607c6020526040808220929092559051829133917f09b4c028a2e50fec6f1c6a0163c59e8fbe92b231e5c03ef3adec585e63a14b929190a350565b606754600160a01b900460ff16156117745760405162461bcd60e51b8152600401610bb7906157ea565b61177e6001613b60565b611789838383613cd8565b505050565b606754600160a01b900460ff16156117b85760405162461bcd60e51b8152600401610bb7906157ea565b6117c183613b60565b60005b83811015611821576118118585838181106117e1576117e1615adf565b905060200201358484848181106117fa576117fa615adf565b905060200281019061180c9190615af5565b613cd8565b61181a81615855565b90506117c4565b5050505050565b606754600160a01b900460ff16156118525760405162461bcd60e51b8152600401610bb7906157ea565b61185b33613685565b6118775760405162461bcd60e51b8152600401610bb7906158bf565b6000818152607d60205260409020546001600160a01b03166118db5760405162461bcd60e51b815260206004820152601760248201527f736f6c7574696f6e20646f6573206e6f742065786973740000000000000000006044820152606401610bb7565b6000818152607e60205260409020546001600160a01b0316156119405760405162461bcd60e51b815260206004820152601b60248201527f636f6e746573746174696f6e20616c72656164792065786973747300000000006044820152606401610bb7565b6071546000828152607d602052604090205461196c9190600160a01b90046001600160401b03166157c0565b42106119a55760405162461bcd60e51b8152602060048201526008602482015267746f6f206c61746560c01b6044820152606401610bb7565b6000818152607d6020526040902054600160e01b900460ff16156119f15760405162461bcd60e51b81526020600482015260036024820152623bba3360e91b6044820152606401610bb7565b60006119fb6113f4565b60408051608081018252338082526001600160401b0342811660208085019182526000858701818152606087018981528b8352607e909352878220965187549451915163ffffffff16600160e01b026001600160e01b0392909616600160a01b026001600160e01b03199095166001600160a01b03919091161793909317929092169290921784559051600190930192909255915192935084927f6958c989e915d3e41a35076e3c480363910055408055ad86ae1ee13d41c406409190a3611ac5826001336136c6565b6000828152607d60209081526040808320546001600160a01b0316835260779091529020548111611189576000828152607d60205260408120546111899184916001600160a01b03166136c6565b611b1b613a75565b611b256000613f88565b565b607d60205260009081526040902080546001820180546001600160a01b03831693600160a01b84046001600160401b031693600160e01b900460ff16929091611b6f9061599e565b80601f0160208091040260200160405190810160405280929190818152602001828054611b9b9061599e565b8015611be85780601f10611bbd57610100808354040283529160200191611be8565b820191906000526020600020905b815481529060010190602001808311611bcb57829003601f168201915b5050505050905084565b606754600160a01b900460ff1615611c1c5760405162461bcd60e51b8152600401610bb7906157ea565b3360009081526079602090815260408083208584528252918290208251808401909352805480845260019091015491830191909152611c915760405162461bcd60e51b81526020600482015260116024820152701c995c5d595cdd081b9bdd08195e1a5cdd607a1b6044820152606401610bb7565b8051421015611cd05760405162461bcd60e51b815260206004820152600b60248201526a3bb0b4ba103637b733b2b960a91b6044820152606401610bb7565b60208082015133600090815260779092526040909120541015611d2a5760405162461bcd60e51b81526020600482015260126024820152711cdd185ad9481a5b9cdd59999a58da595b9d60721b6044820152606401610bb7565b606554602082015160405163a9059cbb60e01b81526001600160a01b039092169163a9059cbb91611d6091869190600401615b3b565b6020604051808303816000875af1158015611d7f573d6000803e3d6000fd5b505050506040513d601f19601f82011682018060405250810190611da39190615838565b50602080820151336000908152607790925260408220805491929091611dca90849061586e565b9091555050602081015160868054600090611de690849061586e565b9091555050602080820151336000908152607a90925260408220805491929091611e1190849061586e565b909155505033600081815260796020908152604080832087845282528083208381556001019290925583810151915191825285926001600160a01b0386169290917f109aeff667601aad33abcb7c5df1617754eefd18253d586a95c198cb479b5bd4910160405180910390a4505050565b606754600160a01b900460ff1615611eac5760405162461bcd60e51b8152600401610bb7906157ea565b611eb4611309565b6000828152607d60209081526040808320546001600160a01b03168352607a825280832054607790925290912054611eec919061586e565b1015611f3a5760405162461bcd60e51b815260206004820152601c60248201527f76616c696461746f72206d696e207374616b656420746f6f206c6f77000000006044820152606401610bb7565b6000818152607d60205260409020546001600160a01b0316611f935760405162461bcd60e51b81526020600482015260126024820152711cdbdb1d5d1a5bdb881b9bdd08199bdd5b9960721b6044820152606401610bb7565b6000818152607e60205260409020546001600160a01b031615611feb5760405162461bcd60e51b815260206004820152601060248201526f3430b99031b7b73a32b9ba30ba34b7b760811b6044820152606401610bb7565b607154611ff8904261586e565b6000828152607d6020526040902054600160a01b90046001600160401b0316106120575760405162461bcd60e51b815260206004820152601060248201526f6e6f7420656e6f7567682064656c617960801b6044820152606401610bb7565b6073546071546000838152607d60209081526040808320546001600160a01b03168352608590915290205461208c91906157c0565b61209691906157c0565b6000828152607d6020526040902054600160a01b90046001600160401b0316116121195760405162461bcd60e51b815260206004820152602e60248201527f636c61696d536f6c7574696f6e20636f6f6c646f776e206166746572206c6f7360448201526d3a1031b7b73a32b9ba30ba34b7b760911b6064820152608401610bb7565b6000818152607d6020526040902054600160e01b900460ff16156121715760405162461bcd60e51b815260206004820152600f60248201526e185b1c9958591e4818db185a5b5959608a1b6044820152606401610bb7565b6000818152607d6020526040808220805460ff60e01b198116600160e01b17909155905183926001600160a01b03909216917f0b76b4ae356796814d36b46f7c500bbd27b2cce1e6059a6fa2bebfd5a389b19091a36121cf81613fda565b50565b6086546065546040516370a0823160e01b8152306004820152600092839290916001600160a01b03909116906370a0823190602401602060405180830381865afa158015612224573d6000803e3d6000fd5b505050506040513d601f19601f820116820180604052508101906122489190615b54565b612252919061586e565b9050697f0e10af47c1c7000000811061226d57600091505090565b61135381697f0e10af47c1c700000061586e565b600054600390610100900460ff161580156122a3575060005460ff8083169116105b6123065760405162461bcd60e51b815260206004820152602e60248201527f496e697469616c697a61626c653a20636f6e747261637420697320616c72656160448201526d191e481a5b9a5d1a585b1a5e995960921b6064820152608401610bb7565b60008054610e106071556101686073556203f480607555670de0b6b3a764000060875567016345785d8a0000608955600a608a5561ffff191660ff83169081176101001761ff0019169091556040519081527f7f26b83ff96e1f2b6a682f133852f6798a09c465da95921460cefb384740249890602001611459565b6000818152607e60205260408120546001600160a01b03166123a6575060016112c0565b6123af82610b1b565b156123bc575060026112c0565b6000828152607f602090815260408083206001600160a01b038716845290915290205460ff16156123ef575060036112c0565b6001600160a01b0383166000908152607760205260408120600101549003612419575060046112c0565b6074546001600160a01b0384166000908152607760205260409020600101541015612446575060056112c0565b6000828152607e60209081526040808320546074546001600160a01b03881685526077909352922060010154600160a01b9092046001600160401b03169161248e919061586e565b111561249c575060066112c0565b50600092915050565b606754600160a01b900460ff16156124cf5760405162461bcd60e51b8152600401610bb7906157ea565b6000828152607e60205260409020546001600160a01b03166125335760405162461bcd60e51b815260206004820152601a60248201527f636f6e746573746174696f6e20646f65736e27742065786973740000000000006044820152606401610bb7565b61253c82610b1b565b6125885760405162461bcd60e51b815260206004820152601760248201527f766f74696e6720706572696f64206e6f7420656e6465640000000000000000006044820152606401610bb7565b60008163ffffffff16116125cf5760405162461bcd60e51b815260206004820152600e60248201526d185b5b9d081d1bdbc81cdb585b1b60921b6044820152606401610bb7565b6000828152608160209081526040808320546082835281842054607e909352908320549092600160e01b90910463ffffffff169061260d8583615b6d565b6000878152607e602052604090206001015490915063ffffffff80851690861611156129ea5760006126458263ffffffff87166157d3565b905060008663ffffffff1660011461267157612662600283615934565b61266c908361586e565b612673565b815b905060008763ffffffff166001146126af57612690600189615b91565b63ffffffff166126a0838561586e565b6126aa9190615934565b6126b2565b60005b905063ffffffff86165b8563ffffffff16811015612872578863ffffffff168110156128605760008b81526081602052604081208054839081106126f8576126f8615adf565b60009182526020808320909101546001600160a01b031680835260779091526040822080549193508892909161272f9084906157c0565b909155505060008290036127d05760655460405163a9059cbb60e01b81526001600160a01b039091169063a9059cbb9061276f9084908890600401615b3b565b6020604051808303816000875af115801561278e573d6000803e3d6000fd5b505050506040513d601f19601f820116820180604052508101906127b29190615838565b5083608660008282546127c5919061586e565b9091555061285e9050565b60655460405163a9059cbb60e01b81526001600160a01b039091169063a9059cbb906128029084908790600401615b3b565b6020604051808303816000875af1158015612821573d6000803e3d6000fd5b505050506040513d601f19601f820116820180604052508101906128459190615838565b508260866000828254612858919061586e565b90915550505b505b8061286a81615855565b9150506126bc565b5060008a8152607e6020526040812054600160e01b900463ffffffff1690036129e25760655460008b8152607b602052604090819020600281015460019190910154915163a9059cbb60e01b81526001600160a01b039384169363a9059cbb936128e29390911691600401615b3b565b6020604051808303816000875af1158015612901573d6000803e3d6000fd5b505050506040513d601f19601f820116820180604052508101906129259190615838565b5060008a8152607b6020526040812060010154608680549192909161294b90849061586e565b909155505060008a8152608360209081526040808320546081909252822080549192607792909190829061298157612981615adf565b60009182526020808320909101546001600160a01b03168352820192909252604001812080549091906129b59084906157c0565b909155505060008a8152607d60209081526040808320546001600160a01b03168352608590915290204290555b505050612c4f565b60006129fc8263ffffffff88166157d3565b905060008563ffffffff16600114612a1e57612a19600283615934565b612a20565b815b905060008663ffffffff16600114612a5c57612a3d600188615b91565b63ffffffff16612a4d838561586e565b612a579190615934565b612a5f565b60005b905063ffffffff86165b8563ffffffff16811015612c1f578763ffffffff16811015612c0d5760008b8152608260205260408120805483908110612aa557612aa5615adf565b60009182526020808320909101546001600160a01b0316808352607790915260408220805491935088929091612adc9084906157c0565b90915550506000829003612b7d5760655460405163a9059cbb60e01b81526001600160a01b039091169063a9059cbb90612b1c9084908890600401615b3b565b6020604051808303816000875af1158015612b3b573d6000803e3d6000fd5b505050506040513d601f19601f82011682018060405250810190612b5f9190615838565b508360866000828254612b72919061586e565b90915550612c0b9050565b60655460405163a9059cbb60e01b81526001600160a01b039091169063a9059cbb90612baf9084908790600401615b3b565b6020604051808303816000875af1158015612bce573d6000803e3d6000fd5b505050506040513d601f19601f82011682018060405250810190612bf29190615838565b508260866000828254612c05919061586e565b90915550505b505b80612c1781615855565b915050612a69565b5060008a8152607e6020526040812054600160e01b900463ffffffff169003612c4b57612c4b8a613fda565b5050505b6000878152607e602090815260409182902080546001600160e01b0316600160e01b63ffffffff8781169182029290921790925592519081529185169189917f71d8c71303e35a39162e33a402c9897bf9848388537bac7d5e1b0d202eca4e66910160405180910390a350505050505050565b606754600160a01b900460ff1615612cec5760405162461bcd60e51b8152600401610bb7906157ea565b6065546040516323b872dd60e01b8152336004820152306024820152604481018390526001600160a01b03909116906323b872dd906064016020604051808303816000875af1158015612d43573d6000803e3d6000fd5b505050506040513d601f19601f82011682018060405250810190612d679190615838565b508060866000828254612d7a91906157c0565b9091555060009050612d8a611309565b6001600160a01b0384166000908152607760205260409020549091508110612df7576001600160a01b0383166000908152607760205260409020548190612dd29084906157c0565b10612df7576001600160a01b0383166000908152607760205260409020426001909101555b604080516060810182526001600160a01b0385166000908152607760205291909120548190612e279085906157c0565b81526001600160a01b038581166000818152607760208181526040808420600181018054848a015297820186905293859052918152865183558681015190955594850151600290910180546001600160a01b0319169190931617909155915184815233917f8d4844488c19a90828439e71d14ebad860806d04f8ef8b25a82179fab2699b8991015b60405180910390a3505050565b612ec4613a75565b6000828152607660205260409020600101546001600160a01b0316612efb5760405162461bcd60e51b8152600401610bb79061580a565b600082815260766020526040908190206002018290555182907f0321e8a918b4c47bf3677852c070983825f30a47bc8d9416691454fa6a727d6390612f439084815260200190565b60405180910390a25050565b600081600003612f685750670de0b6b3a76400006112c0565b670de0b6b3a7640000697f0e10af47c1c7000000612f86858561118d565b670de0b6b3a7640000612fa386697f0e10af47c1c700000061586e565b612fad91906157d3565b612fb791906157d3565b612fc19190615934565b6110539190615934565b612fd3613a75565b606a805467ffffffffffffffff19166001600160401b0383169081179091556040517fa15d6b0930a82638ac4775bfd1b2e9f1e86be67e1bd3a09fa8a77a8f079769d790600090a250565b606754600160a01b900460ff16156130485760405162461bcd60e51b8152600401610bb7906157ea565b60655460665460685460405163a9059cbb60e01b81526001600160a01b039384169363a9059cbb9361307f93911691600401615b3b565b6020604051808303816000875af115801561309e573d6000803e3d6000fd5b505050506040513d601f19601f820116820180604052508101906130c29190615838565b50606854608660008282546130d7919061586e565b90915550506000606855565b606754600160a01b900460ff161561310d5760405162461bcd60e51b8152600401610bb7906157ea565b33600090815260796020908152604080832084845282529182902082518084019093528054808452600190910154918301919091526131825760405162461bcd60e51b81526020600482015260116024820152701c995c5d595cdd081b9bdd08195e1a5cdd607a1b6044820152606401610bb7565b602080820151336000908152607a909252604082208054919290916131a890849061586e565b9091555050336000818152607960209081526040808320868452909152808220828155600101829055518492917ff9d5cfcdfe9803069225971ba315f4302add9b477c3441cc363bc38fdb065b9091a35050565b600063bbf81e0082111561321b5750697f0e10af47c1c7000000919050565b60006132366112a2613231856303c267006144c1565b6144d9565b9050670de0b6b3a764000081613256697f0e10af47c1c7000000836157d3565b61326890670de0b6b3a76400006157d3565b6132729190615934565b61327c9190615934565b61105390697f0e10af47c1c700000061586e565b6081602052816000526040600020818154811061137557600080fd5b6132b4613a75565b606680546001600160a01b0319166001600160a01b0383169081179091556040517f6bdb9ceff405d990c9b60be9f719fbb80889d5f064e8fd76efd5bea353e9071290600090a250565b607660205260009081526040902080546001820154600283015460038401805493946001600160a01b0390931693919291611b6f9061599e565b607b602052600090815260409020805460018201546002830154600384018054939492936001600160a01b03831693600160a01b84046001600160401b031693600160e01b900460ff1692909161338e9061599e565b80601f01602080910402602001604051908101604052809291908181526020018280546133ba9061599e565b80156134075780601f106133dc57610100808354040283529160200191613407565b820191906000526020600020905b8154815290600101906020018083116133ea57829003601f168201915b5050505050905086565b613419613a75565b6121cf8161452f565b6060620100008211156134775760405162461bcd60e51b815260206004820152601f60248201527f4d617820636f6e74656e742073697a65206973203635353336206279746573006044820152606401610bb7565b6000613482836145a5565b905060008185858460405160200161349d9493929190615bae565b604051602081830303815290604052905060026134ba82516145a5565b826040516020016134cc929190615c05565b60408051601f19818403018152908290526134e691615c45565b602060405180830381855afa158015613503573d6000803e3d6000fd5b5050506040513d601f19601f820116820180604052508101906135269190615b54565b604051609160f51b602082015260228101919091526042016040516020818303038152906040529250505092915050565b60006040518060c00160405280858152602001848152602001866001600160a01b03168152602001426001600160401b031681526020018760ff16815260200183815250905060006135ac8233606954611013565b6000818152607b602090815260409182902085518155908501516001820155908401516002820180546060870151608088015160ff16600160e01b0260ff60e01b196001600160401b03909216600160a01b026001600160e01b03199093166001600160a01b0390951694909417919091171691909117905560a08401519192508391600382019061363e9082615a20565b5050604051858152339150869083907fc3d3e0544c80e3bb83f62659259ae1574f72a91515ab3cae3dd75cf77e1b0aea9060200160405180910390a4606955505050505050565b600061368f611309565b6001600160a01b0383166000908152607a60209081526040808320546077909252909120546136be919061586e565b101592915050565b6000838152607f602090815260408083206001600160a01b03851684529091529020805460ff1916600117905581156137355760008381526081602090815260408220805460018101825590835291200180546001600160a01b0319166001600160a01b03831617905561376d565b60008381526082602090815260408220805460018101825590835291200180546001600160a01b0319166001600160a01b0383161790555b6000838152607e60209081526040808320600101546001600160a01b0385168452607790925282208054919290916137a690849061586e565b9091555050604051821515815283906001600160a01b038316907f1aa9e4be46e24e1f2e7eeb1613c01629213cd42965d2716e18531b63e552e41190602001612eaf565b60008282600160ff1b8214806138035750600160ff1b81145b15613821576040516309fe2b4560e41b815260040160405180910390fd5b600080600084126138325783613837565b836000035b915060008312613847578261384c565b826000035b9050600061386383670de0b6b3a7640000846146fc565b90506001600160ff1b038111156138975760405163d49c26b360e01b81526004810189905260248101889052604401610bb7565b600019858518136138b3816138af57826000036112a2565b8290565b9998505050505050505050565b60006110536112a28385615c61565b60008282600160ff1b8214806138e85750600160ff1b81145b156139065760405163a6070c2560e01b815260040160405180910390fd5b60008060008412613917578361391c565b836000035b91506000831261392c5782613931565b826000035b9050600061393f83836147d0565b90506001600160ff1b038111156138975760405163120b5b4360e01b81526004810189905260248101889052604401610bb7565b60006110536112a28385615c81565b600081600160ff1b81016139a95760405163ec2b9e6760e01b815260040160405180910390fd5b600081126139b75782611053565b6110536112a282615ca9565b60008181811215613a245768033dd1780914b97114198112156139e95750600092915050565b613a1d6139fc6112a261129d8460000390565b6ec097ce7bc90715b34b9f100000000081613a1957613a1961591e565b0590565b9150613a6f565b680a688906bd8affffff811315613a5057604051626c1a0560e31b815260048101849052602401610bb7565b670de0b6b3a7640000604082901b05613a6b6112a282614886565b9250505b50919050565b6033546001600160a01b03163314611b255760405162461bcd60e51b815260206004820181905260248201527f4f776e61626c653a2063616c6c6572206973206e6f7420746865206f776e65726044820152606401610bb7565b60004661a4ba811480613ae4575062066eed81145b80613af1575062066eee81145b15613b595760646001600160a01b031663a3b1b31d6040518163ffffffff1660e01b8152600401602060405180830381865afa158015613b35573d6000803e3d6000fd5b505050506040513d601f19601f820116820180604052508101906113539190615b54565b4391505090565b60735460715433600090815260856020526040902054613b8091906157c0565b613b8a91906157c0565b4211613bf05760405162461bcd60e51b815260206004820152602f60248201527f7375626d6974536f6c7574696f6e20636f6f6c646f776e206166746572206c6f60448201526e39ba1031b7b73a32b9ba30ba34b7b760891b6064820152608401610bb7565b80608454613bfe91906157d3565b3360009081526077602052604081208054909190613c1d90849061586e565b9091555050608754670de0b6b3a764000090613c3a9083906157d3565b613c449190615934565b33600090815260886020526040902054613c5e904261586e565b11613ca15760405162461bcd60e51b81526020600482015260136024820152721cdbdb1d5d1a5bdb881c985d19481b1a5b5a5d606a1b6044820152606401610bb7565b336000818152608860205260409020429055613cbc90613685565b6121cf5760405162461bcd60e51b8152600401610bb7906158bf565b6000838152607b6020526040902054613d295760405162461bcd60e51b81526020600482015260136024820152721d185cdac8191bd95cc81b9bdd08195e1a5cdd606a1b6044820152606401610bb7565b6000838152607d60205260409020546001600160a01b031615613d8e5760405162461bcd60e51b815260206004820152601a60248201527f736f6c7574696f6e20616c7265616479207375626d69747465640000000000006044820152606401610bb7565b6000613d9c33858585611391565b6000818152607c6020526040902054909150613dfa5760405162461bcd60e51b815260206004820152601760248201527f6e6f6e206578697374656e7420636f6d6d69746d656e740000000000000000006044820152606401610bb7565b613e02613acf565b6000828152607c602052604090205410613e5e5760405162461bcd60e51b815260206004820152601a60248201527f636f6d6d69746d656e74206d75737420626520696e20706173740000000000006044820152606401610bb7565b6040518060800160405280336001600160a01b03168152602001426001600160401b0316815260200160001515815260200184848080601f0160208091040260200160405190810160405280939291908181526020018383808284376000920182905250939094525050868152607d60209081526040918290208451815492860151938601511515600160e01b0260ff60e01b196001600160401b03909516600160a01b026001600160e01b03199094166001600160a01b0390921691909117929092179290921617815560608301519091506001820190613f409082615a20565b505060845460008681526083602052604080822092909255905186925033917f957c18b5af8413899ea8a576a4d3fb16839a02c9fccfdce098b6d59ef248525b91a350505050565b603380546001600160a01b038381166001600160a01b0319831681179093556040519116919082907f8be0079c531659141344cd1fd0a4f28419497f9722a3daafe3b4186f6b6457e090600090a35050565b6000818152607b60208181526040808420805485526076835290842054938590529190526001015481111561400d575060005b80156140ab576065546000838152607b6020908152604080832054835260769091529081902060010154905163a9059cbb60e01b81526001600160a01b039283169263a9059cbb92614066929116908590600401615b3b565b6020604051808303816000875af1158015614085573d6000803e3d6000fd5b505050506040513d601f19601f820116820180604052508101906140a99190615838565b505b6000828152607b60205260408120600101546140c890839061586e565b90506000670de0b6b3a7640000606e54670de0b6b3a76400006140eb919061586e565b6140f590846157d3565b6140ff9190615934565b614109908361586e565b9050806068600082825461411d91906157c0565b909155506000905061412f828461586e565b905080156141c8576065546000868152607d60205260409020546001600160a01b039182169163a9059cbb9116614166858761586e565b6040518363ffffffff1660e01b8152600401614183929190615b3b565b6020604051808303816000875af11580156141a2573d6000803e3d6000fd5b505050506040513d601f19601f820116820180604052508101906141c69190615838565b505b6000858152607b6020908152604080832054835260769091529020600201548015614444576000670de0b6b3a7640000826142016113ca565b61420b91906157d3565b6142159190615934565b90508015614442576000670de0b6b3a7640000607054670de0b6b3a764000061423e919061586e565b61424890846157d3565b6142529190615934565b61425c908361586e565b90506000670de0b6b3a7640000608954670de0b6b3a764000061427f919061586e565b61428990856157d3565b6142939190615934565b61429d908461586e565b60655460008b8152607d60205260409020549192506001600160a01b039081169163a9059cbb9116836142d0868861586e565b6142da919061586e565b6040518363ffffffff1660e01b81526004016142f7929190615b3b565b6020604051808303816000875af1158015614316573d6000803e3d6000fd5b505050506040513d601f19601f8201168201806040525081019061433a9190615838565b5060655460665460405163a9059cbb60e01b81526001600160a01b039283169263a9059cbb92614371929116908690600401615b3b565b6020604051808303816000875af1158015614390573d6000803e3d6000fd5b505050506040513d601f19601f820116820180604052508101906143b49190615838565b5060655460008a8152607b60205260409081902060020154905163a9059cbb60e01b81526001600160a01b039283169263a9059cbb926143fb929116908590600401615b3b565b6020604051808303816000875af115801561441a573d6000803e3d6000fd5b505050506040513d601f19601f8201168201806040525081019061443e9190615838565b5050505b505b600086815260836020908152604080832054607d8352818420546001600160a01b03168452607790925282208054919290916144819084906157c0565b90915550506000868152607b60205260409020600101546144a390849061586e565b608660008282546144b4919061586e565b9091555050505050505050565b60006110536112a284670de0b6b3a7640000856146fc565b600081680a688906bd8affffff8111156145095760405163b3b6ba1f60e01b815260048101849052602401610bb7565b6000614521670de0b6b3a7640000604084901b615934565b9050613a6b6112a282614886565b614537613a75565b6001600160a01b03811661459c5760405162461bcd60e51b815260206004820152602660248201527f4f776e61626c653a206e6577206f776e657220697320746865207a65726f206160448201526564647265737360d01b6064820152608401610bb7565b6121cf81613f88565b60608160015b607f826001600160401b031611156145de576007826001600160401b0316901c9150806145d790615cc5565b90506145ab565b6000816001600160401b03166001600160401b0381111561460157614601615166565b6040519080825280601f01601f19166020018201604052801561462b576020820181803683370190505b50905084925060005b826001600160401b0316816001600160401b031610156146ad5783607f1660801760f81b82826001600160401b03168151811061467357614673615adf565b60200101906001600160f81b031916908160001a9053506007846001600160401b0316901c935080806146a590615cc5565b915050614634565b50607f60f81b816146bf600185615ceb565b6001600160401b0316815181106146d8576146d8615adf565b0160200180519091166001600160f81b03191690600082901a905350949350505050565b60008080600019858709858702925082811083820303915050806000036147365783828161472c5761472c61591e565b0492505050611053565b83811061476757604051630c740aef60e31b8152600481018790526024810186905260448101859052606401610bb7565b60008486880960026001871981018816978890046003810283188082028403028082028403028082028403028082028403028082028403029081029092039091026000889003889004909101858311909403939093029303949094049190911702949350505050565b60008080600019848609848602925082811083820303915050806000036148045750670de0b6b3a7640000900490506112c0565b670de0b6b3a7640000811061483657604051635173648d60e01b81526004810186905260248101859052604401610bb7565b6000670de0b6b3a764000085870962040000818503049310909103600160ee1b02919091177faccb18165bd6fe31ae1cf318dc5b51eee0e1ba569b88cd74c1773b91fac106690291505092915050565b600160bf1b67ff00000000000000821615614993576780000000000000008216156148ba5768016a09e667f3bcc9090260401c5b6740000000000000008216156148d9576801306fe0a31b7152df0260401c5b6720000000000000008216156148f8576801172b83c7d517adce0260401c5b6710000000000000008216156149175768010b5586cf9890f62a0260401c5b670800000000000000821615614936576801059b0d31585743ae0260401c5b67040000000000000082161561495557680102c9a3e778060ee70260401c5b6702000000000000008216156149745768010163da9fb33356d80260401c5b67010000000000000082161561499357680100b1afa5abcbed610260401c5b66ff000000000000821615614a925766800000000000008216156149c05768010058c86da1c09ea20260401c5b66400000000000008216156149de576801002c605e2e8cec500260401c5b66200000000000008216156149fc57680100162f3904051fa10260401c5b6610000000000000821615614a1a576801000b175effdc76ba0260401c5b6608000000000000821615614a3857680100058ba01fb9f96d0260401c5b6604000000000000821615614a565768010002c5cc37da94920260401c5b6602000000000000821615614a74576801000162e525ee05470260401c5b6601000000000000821615614a925768010000b17255775c040260401c5b65ff0000000000821615614b885765800000000000821615614abd576801000058b91b5bc9ae0260401c5b65400000000000821615614ada57680100002c5c89d5ec6d0260401c5b65200000000000821615614af75768010000162e43f4f8310260401c5b65100000000000821615614b1457680100000b1721bcfc9a0260401c5b65080000000000821615614b315768010000058b90cf1e6e0260401c5b65040000000000821615614b4e576801000002c5c863b73f0260401c5b65020000000000821615614b6b57680100000162e430e5a20260401c5b65010000000000821615614b88576801000000b1721835510260401c5b64ff00000000821615614c7557648000000000821615614bb157680100000058b90c0b490260401c5b644000000000821615614bcd5768010000002c5c8601cc0260401c5b642000000000821615614be9576801000000162e42fff00260401c5b641000000000821615614c055768010000000b17217fbb0260401c5b640800000000821615614c21576801000000058b90bfce0260401c5b640400000000821615614c3d57680100000002c5c85fe30260401c5b640200000000821615614c595768010000000162e42ff10260401c5b640100000000821615614c7557680100000000b17217f80260401c5b63ff000000821615614d59576380000000821615614c9c5768010000000058b90bfc0260401c5b6340000000821615614cb7576801000000002c5c85fe0260401c5b6320000000821615614cd257680100000000162e42ff0260401c5b6310000000821615614ced576801000000000b17217f0260401c5b6308000000821615614d0857680100000000058b90c00260401c5b6304000000821615614d235768010000000002c5c8600260401c5b6302000000821615614d3e576801000000000162e4300260401c5b6301000000821615614d595768010000000000b172180260401c5b62ff0000821615614e345762800000821615614d7e576801000000000058b90c0260401c5b62400000821615614d9857680100000000002c5c860260401c5b62200000821615614db25768010000000000162e430260401c5b62100000821615614dcc57680100000000000b17210260401c5b62080000821615614de65768010000000000058b910260401c5b62040000821615614e00576801000000000002c5c80260401c5b62020000821615614e1a57680100000000000162e40260401c5b62010000821615614e34576801000000000000b1720260401c5b61ff00821615614f0657618000821615614e5757680100000000000058b90260401c5b614000821615614e705768010000000000002c5d0260401c5b612000821615614e89576801000000000000162e0260401c5b611000821615614ea25768010000000000000b170260401c5b610800821615614ebb576801000000000000058c0260401c5b610400821615614ed457680100000000000002c60260401c5b610200821615614eed57680100000000000001630260401c5b610100821615614f0657680100000000000000b10260401c5b60ff821615614fcf576080821615614f2757680100000000000000590260401c5b6040821615614f3f576801000000000000002c0260401c5b6020821615614f5757680100000000000000160260401c5b6010821615614f6f576801000000000000000b0260401c5b6008821615614f8757680100000000000000060260401c5b6004821615614f9f57680100000000000000030260401c5b6002821615614fb757680100000000000000010260401c5b6001821615614fcf57680100000000000000010260401c5b670de0b6b3a76400000260409190911c60bf031c90565b600060208284031215614ff857600080fd5b5035919050565b803560ff8116811461100e57600080fd5b80356001600160a01b038116811461100e57600080fd5b60008083601f84011261503957600080fd5b5081356001600160401b0381111561505057600080fd5b60208301915083602082850101111561506857600080fd5b9250929050565b60008060008060008060a0878903121561508857600080fd5b61509187614fff565b955061509f60208801615010565b9450604087013593506060870135925060808701356001600160401b038111156150c857600080fd5b6150d489828a01615027565b979a9699509497509295939492505050565b600080600080600080600060c0888a03121561510157600080fd5b61510a88614fff565b965061511860208901615010565b9550604088013594506060880135935060808801356001600160401b0381111561514157600080fd5b61514d8a828b01615027565b989b979a5095989497959660a090950135949350505050565b634e487b7160e01b600052604160045260246000fd5b60405160c081016001600160401b038111828210171561519e5761519e615166565b60405290565b80356001600160401b038116811461100e57600080fd5b600082601f8301126151cc57600080fd5b81356001600160401b03808211156151e6576151e6615166565b604051601f8301601f19908116603f0116810190828211818310171561520e5761520e615166565b8160405283815286602085880101111561522757600080fd5b836020870160208301376000602085830101528094505050505092915050565b60008060006060848603121561525c57600080fd5b83356001600160401b038082111561527357600080fd5b9085019060c0828803121561528757600080fd5b61528f61517c565b82358152602083013560208201526152a960408401615010565b60408201526152ba606084016151a4565b60608201526152cb60808401614fff565b608082015260a0830135828111156152e257600080fd5b6152ee898286016151bb565b60a083015250945061530591505060208501615010565b9150604084013590509250925092565b80151581146121cf57600080fd5b60006020828403121561533557600080fd5b813561105381615315565b6000806040838503121561535357600080fd5b82359150602083013561536581615315565b809150509250929050565b60006020828403121561538257600080fd5b61105382615010565b6000806040838503121561539e57600080fd5b50508035926020909101359150565b600080604083850312156153c057600080fd5b82356001600160401b03808211156153d757600080fd5b90840190608082870312156153eb57600080fd5b60405160808101818110838211171561540657615406615166565b6040528235815261541960208401615010565b60208201526040830135604082015260608301358281111561543a57600080fd5b615446888286016151bb565b606083015250935061545d91505060208401615010565b90509250929050565b6000806000806060858703121561547c57600080fd5b61548585615010565b93506020850135925060408501356001600160401b038111156154a757600080fd5b6154b387828801615027565b95989497509550505050565b600080602083850312156154d257600080fd5b82356001600160401b038111156154e857600080fd5b6154f485828601615027565b90969095509350505050565b60005b8381101561551b578181015183820152602001615503565b50506000910152565b6000815180845261553c816020860160208601615500565b601f01601f19169290920160200192915050565b6020815260006110536020830184615524565b60008060006040848603121561557857600080fd5b8335925060208401356001600160401b0381111561559557600080fd5b6155a186828701615027565b9497909650939450505050565b60008083601f8401126155c057600080fd5b5081356001600160401b038111156155d757600080fd5b6020830191508360208260051b850101111561506857600080fd5b6000806000806040858703121561560857600080fd5b84356001600160401b038082111561561f57600080fd5b61562b888389016155ae565b9096509450602087013591508082111561564457600080fd5b506154b3878288016155ae565b6001600160a01b03851681526001600160401b0384166020820152821515604082015260806060820181905260009061568c90830184615524565b9695505050505050565b600080604083850312156156a957600080fd5b8235915061545d60208401615010565b600080604083850312156156cc57600080fd5b6156d583615010565b946020939093013593505050565b600080604083850312156156f657600080fd5b82359150602083013563ffffffff8116811461536557600080fd5b60006020828403121561572357600080fd5b611053826151a4565b84815260018060a01b038416602082015282604082015260806060820152600061568c6080830184615524565b86815285602082015260018060a01b03851660408201526001600160401b038416606082015260ff8316608082015260c060a0820152600061579e60c0830184615524565b98975050505050505050565b634e487b7160e01b600052601160045260246000fd5b808201808211156112c0576112c06157aa565b80820281158282048414176112c0576112c06157aa565b6020808252600690820152651c185d5cd95960d21b604082015260600190565b6020808252601490820152731b5bd9195b08191bd95cc81b9bdd08195e1a5cdd60621b604082015260600190565b60006020828403121561584a57600080fd5b815161105381615315565b600060018201615867576158676157aa565b5060010190565b818103818111156112c0576112c06157aa565b60018060a01b038616815284602082015283604082015282606082015260a0608082015260006158b460a0830184615524565b979650505050505050565b6020808252601290820152716d696e207374616b656420746f6f206c6f7760701b604082015260600190565b6001600160a01b038581168252841660208201526040810183905260806060820181905260009061568c90830184615524565b634e487b7160e01b600052601260045260246000fd5b60008261595157634e487b7160e01b600052601260045260246000fd5b500490565b6001600160a01b0385168152602081018490526060604082018190528101829052818360808301376000818301608090810191909152601f909201601f191601019392505050565b600181811c908216806159b257607f821691505b602082108103613a6f57634e487b7160e01b600052602260045260246000fd5b601f82111561178957600081815260208120601f850160051c810160208610156159f95750805b601f850160051c820191505b81811015615a1857828155600101615a05565b505050505050565b81516001600160401b03811115615a3957615a39615166565b615a4d81615a47845461599e565b846159d2565b602080601f831160018114615a825760008415615a6a5750858301515b600019600386901b1c1916600185901b178555615a18565b600085815260208120601f198616915b82811015615ab157888601518255948401946001909101908401615a92565b5085821015615acf5787850151600019600388901b60f8161c191681555b5050505050600190811b01905550565b634e487b7160e01b600052603260045260246000fd5b6000808335601e19843603018112615b0c57600080fd5b8301803591506001600160401b03821115615b2657600080fd5b60200191503681900382131561506857600080fd5b6001600160a01b03929092168252602082015260400190565b600060208284031215615b6657600080fd5b5051919050565b63ffffffff818116838216019080821115615b8a57615b8a6157aa565b5092915050565b63ffffffff828116828216039080821115615b8a57615b8a6157aa565b6204010960e91b81528451600090615bcd816003850160208a01615500565b820184866003830137600360fb1b6003918601918201528351615bf7816004840160208801615500565b016004019695505050505050565b600560f91b81528251600090615c22816001850160208801615500565b835190830190615c39816001840160208801615500565b01600101949350505050565b60008251615c57818460208701615500565b9190910192915050565b8181036000831280158383131683831282161715615b8a57615b8a6157aa565b8082018281126000831280158216821582161715615ca157615ca16157aa565b505092915050565b6000600160ff1b8201615cbe57615cbe6157aa565b5060000390565b60006001600160401b03808316818103615ce157615ce16157aa565b6001019392505050565b6001600160401b03828116828216039080821115615b8a57615b8a6157aa56fea26469706673582212201b3e78ec0cdcc98ef3d0d4a7a25c25f10399c30ea282be5aabd7b86aa7200af164736f6c63430008130033",
  "linkReferences": {},
  "deployedLinkReferences": {}
}